:0400000002002132A7
:01000B0032C2
:0100130032BA
:03001B0002007D63
:03007A0002001E63
:03001E0002007E5F
:10007D00329001F4120415750980750A25E4F50B0B
:10008D00F50C7582001207FC9001F4120415900016
:10009D0051E4F0900052F0900053F0900054F09025
:1000AD000055F0900056F0900057F0900058F090E9
:1000BD000059F090005AF090005BF090005CF090C9
:1000CD00005DF090005EF090005FF0900060F090A9
:1000DD000061F0900062F0900063F0900064F09089
:1000ED000065F0900066F0900067F0900068F09069
:1000FD000069F090006AF090006BF090006CF09049
:10010D00006DF090006EF090006FF0900070F09028
:10011D000071F0900072F0900073F0900074F09008
:10012D000075F0900076F0900077F0900078F090E8
:10013D000079F090007AF090007BF090007CF090C8
:10014D00007DF090007EF090007FF0900080F090A8
:10015D000081F0900082F0900083F0900084F09088
:10016D000085F0900086F0900087F0900088F09068
:10017D000089F090008AF090008BF090008CF09048
:10018D00008DF090008EF090008FF0900090F09028
:10019D000091F0900092F0900093F0900094F09008
:1001AD000095F0900096F0900097F0900098F090E8
:1001BD000099F090009AF090009BF090009CF090C8
:1001CD00009DF090009EF090009FF09000A0F090A8
:1001DD0000A1F09000A2F09000A3F09000A4F09088
:1001ED0000A5F09000A6F09000A7F09000A8F09068
:1001FD0000A9F09000AAF09000ABF09000ACF09048
:10020D0000ADF09000AEF09000AFF09000B0F09027
:10021D0000B1F09000B2F09000B3F09000B4F09007
:10022D0000B5F09000B6F09000B7F09000B8F090E7
:10023D0000B9F09000BAF09000BBF09000BCF090C7
:10024D0000BDF09000BEF09000BFF09000C0F090A7
:10025D0000C1F09000C2F09000C3F09000C4F09087
:10026D0000C5F09000C6F09000C7F09000C8F09067
:10027D0000C9F09000CAF09000CBF09000CCF09047
:10028D0000CDF09000CEF09000CFF09000D0F09027
:10029D0000D1F09000D2F09000D3F09000D4F09007
:1002AD0000D5F09000D6F09000D7F09000D8F090E7
:1002BD0000D9F09000DAF09000DBF09000DCF090C7
:1002CD0000DDF09000DEF09000DFF09000E0F090A7
:1002DD0000E1F09000E2F09000E3F09000E4F09087
:1002ED0000E5F09000E6F09000E7F09000E8F09067
:1002FD0000E9F09000EAF09000EBF09000ECF09047
:10030D0000EDF09000EEF09000EFF09000F0F09026
:10031D0000F1F09000F2F09000F3F09000F4F09006
:10032D0000F5F09000F6F09000F7F09000F8F090E6
:10033D0000F9F09000FAF09000FBF09000FCF090C6
:10034D0000FDF09000FEF09000FFF0900100F090A5
:10035D000101F0900102F0900103F0900104F09082
:10036D000105F0900106F0900107F0900108F0757D
:10037D00410075429675430090007375F000121799
:10038D001090000312055F120F7985822890006F7F
:10039D0075F000120F8F90005175F0001211DB7582
:1003AD00415175420075430090007375F0001217AE
:1003BD002F75412B75421975438090007375F000B0
:1003CD0012172F75416F75420075430090007375BC
:1003DD00F00012172F75412D75421975438090004D
:1003ED007375F00012172F753C2F753D19753E80F2
:1003FD00753F0575400090007375F000121656900C
:08040D0003E812041502037C50
:0C192B003A003B00434F4E4E4543540031
:10041500AE82AF837C007D00C3EC9EED9F50147AC5
:10042500C87B011ABAFF011BEA4B70F70CBC00E848
:100435000D80E522E582FF700485419222BF01010E
:1004450022BF020385419622AF827E00EF7004AE83
:1004550092800CBF01047E008005BF0202AE968E1D
:100465008222E582FF700485419322BF010122BFEC
:10047500020385419722AF827E00EF7004AE938020
:100485000CBF01047E008005BF0202AE978E82225A
:10049500E582FF700485419022BF01048541A022B9
:1004A500BF02038541B022AF827E00EF7004AE909B
:1004B500800CBF0104AEA08005BF0202AEB08E82E3
:1004C50022AF82E5087013F5418F82C00712043907
:1004D500D0077541008F820204677401B508147551
:1004E50041008F82C007120439D0077541FF8F8202
:1004F5000204677402B508147541FF8F82C00712A4
:100505000439D0077541008F820204677403B5086A
:10051500147541FF8F82C007120439D0077541FF5A
:100525008F820204672243801022E580C4540FFFA6
:1005350074015FF58222E5826004439A0822539A8A
:10054500F722E5826004439A0122539AFE22AF8284
:100555005380FC530703EF42802275820112053B4D
:1005650075820112054775820312055312052B90FA
:1005750001F4120415859F82227508017582021205
:1005850004C67541FF7582021204959001F40204B8
:1005950015AF8275C600754100758202C007120449
:1005A50095900001120415D0077E00BE0800505634
:1005B5008EF005F07C017D008006EC2CFCED33FD12
:1005C500D5F0F78F027B00EA5204EB5205EC4D6043
:1005D500137541FF758202C007C006120495D00647
:1005E500D0078011754100758202C007C00612044C
:1005F50095D006D007900001C007C006120415D09B
:1006050006D0070E80A57541FF75820212049590EC
:100615000001020415AD82AE83AFF07B007C00EBD8
:100625002DF8EC3EF98F02888289838AF012189D95
:100635006031EB2DF8EC3EF98F020BBB00010C8805
:100645008289838AF012189DF582C007C006C0050D
:10065500C004C003120596D003D004D005D006D03F
:100665000780BC2212061A75820D12059675820A3C
:10067500020596E5B95407F58222E582FF702B53F2
:1006850089FCE54124FC4056E54175F003A490063C
:1006950097730206E30206A30206A70206AB438987
:1006A50001224389022243890322BF012B5389CFAB
:1006B500E54124FC4028E54175F003A49006C57387
:1006C5000206E30206D10206D50206D943891022A5
:1006D5004389202243893022BF020353C8CD22E536
:1006E50082FF701453C96F7401B5410343C9107477
:1006F50003B5413F43C99022BF011453C95F74013B
:10070500B5410343C9207403B5412843C9A022BF9D
:10071500022153C93FE541700343C9107401B54136
:100725000280057402B5410343C9407403B5410312
:1007350043C9C022E582FF7008E54170045389FB77
:1007450022EF70097401B5410443890422BF0103F6
:10075500EF8001E4FF6008E54170045389BF22EF93
:1007650060087401B5410343894022AF82BF00028E
:10077500800ABF0102800CBF0216800E85418A8562
:10078500428C2285418B85428D228541CC8542CD87
:1007950022E582FF700FE541600743A88043A80268
:1007A5002253A8FD22BF010FE541600743A88043FE
:1007B500A8082253A8F722BF020EE541600743A807
:1007C5008043A8202253A8DF22E582FF70054388D5
:1007D500108006BF0103438840BF020343C80422BB
:1007E500E582FF70055388EF8006BF01035388BF7C
:1007F500BF020353C8FB22AF82C007120678AE8240
:10080500D0077A007B007C007D00EE24F94058EE8D
:100815002E90081A73800C8014801C8024802C80F4
:1008250034803C7A6C7BDC7C027D00803A7AB07B3C
:10083500717C0B7D0080307AC07BC67C2D7D00806D
:10084500267A807B8D7C5B7D00801C7A007B1B7CFF
:10085500B77D0080127A007B247CF47D0080087AC5
:10086500007B367C6E7D01EF705753C8CF43C9A01E
:10087500438780754110E4F542F543F5448A828B40
:10088500838CF0ED121833850941850A42850B43A7
:10089500850C44121833AC82C3E49CF58D75410177
:1008A50075820112079675410275820112067F5302
:1008B50089B77582011207CE43985053A8BF43A844
:1008C5009022858299E59803540160F95398FD2299
:1008D500AD82AE83AFF07B007C00EB2DF8EC3EF9EA
:1008E5008F02888289838AF012189D6031EB2DF87A
:1008F500EC3EF98F020BBB00010C888289838AF0DC
:1009050012189DF582C007C006C005C004C00312B9
:1009150008C7D003D004D005D006D00780BC22ADCF
:1009250082AE83AFF0900159E4F090015AF0900146
:100935005BF090015CF090015DF090015EF090013C
:100945005FF0900160F0900161F0900162F090011C
:1009550063F0900164F0900165F0900166F09001FC
:1009650067F0900168F0900169F090016AF09001DC
:100975006BF090016CF090016DF090016EF09001BC
:100985006FF0900170F0900171F0900172F090019C
:1009950073F0900174F0900175F0900176F090017C
:1009A50077F0900178F0900179F090017AF090015C
:1009B5007BF090017CF090017DF090017EF090013C
:1009C5007FF0900180F0900181F0900182F090011C
:1009D50083F0900184F0900185F0900186F09001FC
:1009E50087F0900188F0900189F090018AF09001DC
:1009F5008BF090018CF090018DF090018EF09001BC
:100A05008FF0900190F0900191F0900192F090019B
:100A150093F0900194F0900195F0900196F090017B
:100A250097F0900198F0900199F090019AF090015B
:100A35009BF090019CF090019DF090019EF090013B
:100A45009FF09001A0F09001A1F09001A2F090011B
:100A5500A3F09001A4F09001A5F09001A6F09001FB
:100A6500A7F09001A8F09001A9F09001AAF09001DB
:100A7500ABF09001ACF09001ADF09001AEF09001BB
:100A8500AFF09001B0F09001B1F09001B2F090019B
:100A9500B3F09001B4F09001B5F09001B6F090017B
:100AA500B7F09001B8F09001B9F09001BAF090015B
:100AB500BBF09001BCF09001BDF09001BEF090013B
:100AC500BFF09001C0F09001C1F09001C2F090011B
:100AD500C3F09001C4F09001C5F09001C6F09001FB
:100AE500C7F09001C8F09001C9F09001CAF09001DB
:100AF500CBF09001CCF09001CDF09001CEF09001BB
:100B0500CFF09001D0F09001D1F09001D2F090019A
:100B1500D3F09001D4F09001D5F09001D6F090017A
:100B2500D7F09001D8F09001D9F09001DAF090015A
:100B3500DBF09001DCF09001DDF09001DEF090013A
:100B4500DFF09001E0F09001E1F09001E2F090011A
:100B5500E3F09001E4F09001E5F09001E6F09001FA
:100B6500E7F09001E8F09001E9F09001EAF09001DA
:100B7500EBF09001ECF09001EDF09001EEF09001BA
:100B8500EFF09001F0F09001F1F09001F2F090019A
:100B9500F3F09001F4F09001F5F09001F6F090017A
:100BA500F7F09001F8F09001F9F09001FAF090015A
:100BB500FBF09001FCF09001FDF09001FEF090013A
:100BC500FFF0900200F0900201F0900202F0900216
:100BD50003F0900204F0900205F0900206F09002F6
:100BE50007F0900208F0900209F090020AF09002D6
:100BF5000BF090020CF090020DF090020EF09002B6
:100C05000FF0900210F0900211F0900212F0900295
:100C150013F0900214F0900215F0900216F0900275
:100C250017F0900218F0900219F090021AF0900255
:100C35001BF090021CF090021DF090021EF0900235
:100C45001FF0900220F0900221F0900222F0900215
:100C550023F0900224F0900225F0900226F09002F5
:100C650027F0900228F0900229F090022AF09002D5
:100C75002BF090022CF090022DF090022EF09002B5
:100C85002FF0900230F0900231F0900232F0900295
:100C950033F0900234F0900235F0900236F0900275
:100CA50037F0900238F0900239F090023AF0900255
:100CB5003BF090023CF090023DF090023EF0900235
:100CC5003FF0900240F0900241F0900242F0900215
:100CD50043F0900244F0900245F0900246F09002F5
:100CE50047F0900248F0900249F090024AF09002D5
:100CF5004BF090024CF090024DF090024EF09002B5
:100D05004FF0900250F0900251F0900252F0900294
:100D150053F0900254F0900255F0900256F0900274
:100D250057F0900258F08D828E838FF01208D5759A
:100D3500820D1208C775820A0208C7AD82AE83AF5D
:100D4500F07C017A007B00850D417542009003E837
:100D5500C007C006C005C004C003C0021217A0A882
:100D650082A983D002D003D004D005D006D007C312
:100D7500EA98EB648089F063F08095F05040A9987B
:100D8500530101B901128D828E838FF0E5991217F7
:100D9500857C005398FE8026900001C007C006C0E0
:100DA50005C004C003C002120415D002D003D0044C
:100DB500D005D006D0070ABA00010B020D4C8C8273
:100DC5002285821185831285F013E50E24FFFBE54C
:100DD5000F34FFFC79007A0085100D90001475F032
:100DE50040C004C003C002C001120D40E582D0011D
:100DF500D002D003D0047026E9B50306EAB5040293
:100E0500801CE92511F8EA3512FEAF1309B9000176
:100E15000A88828E838FF0E51412178580BA89823D
:100E25008A8322AD82AE83AFF07B007C0085170DEF
:100E350090001975F040C007C006C005C004C00386
:100E4500120D40E582D003D004D005D006D007703E
:100E550030E518B519028029EB2DF8EC3EF98F0223
:100E65000BBB00010C888289838AF0E5191217856E
:100E7500C3EB9515EC64808516F063F08095F04022
:100E8500ACEB2DFDEC3EFE8D828E838FF0E41217C8
:100E9500858B828C832285821D85831E85F01FE5C7
:100EA5001D451E6006E51A451B700490FFFF22854F
:100EB5001D82851E83851FF01218858582208583F6
:100EC50021851A82851B83851CF01218858582224F
:100ED500858323E5224523700490FFFF22E4F8FC77
:100EE500E520C39522F526E5219523F527E4F5248C
:100EF500F525C3E5269524E52764808525F063F06F
:100F05008095F0406B7D007E00C3ED9522EE6480F8
:100F15008523F063F08095F0503BED2524F9EE35FF
:100F250025FAE9251DF9EA351EFAAF1F89828A835C
:100F35008FF012189DF9ED251AFAEE351BFBAF1C43
:100F45008A828B838FF012189DFAE9B502070DBDD1
:100F550000B70E80B4EDB52209EEB5230588828C65
:100F650083220524E4B524020525A824AC25808226
:100F750090FFFF22AF828F417542009000641217E7
:100F8500A07541FF7542000218EF85822985832AE5
:100F950085F02BE529452A700122E4F52DF52EF57E
:100FA5002FF530E5287023852982852A83852BF046
:100FB500743012178574012529FAE4352AFBAC2B08
:100FC5008A828B838CF0E4021785752C00E52860F6
:100FD5003CE52C242DF9052CAA287B0075410A8BAC
:100FE500428A828B83C003C002C0011218B9AC8249
:100FF500D001D002D00374302CF775410A75420038
:101005008A828B831218EFAE828E2880C0AF2C7E29
:1010150000C3EE9F5020EE2529FBE4352AFCAD2BBD
:10102500EFC39E14242DF987028B828C838DF0EA01
:101035001217850E80DBEF2529FFE4352AFEAD2B3F
:101045008F828E838DF0E4021785AD82AE83AFF07B
:10105500900259E4F090025AF090025BF090025C25
:10106500F090025DF090025EF090025FF0900260F9
:10107500F0900261F0900262F0900263F0900264D9
:10108500F0900265F0900266F0900267F0900259C8
:10109500F5F0C007C006C0051211DBD005D006D09B
:1010A500077541377542197543808D828E838FF0A0
:1010B500C007C006C00512166BD005D006D007754F
:1010C50041597542027543008D828E838FF0C007AA
:1010D500C006C00512172FD005D006D00775415997
:1010E5007542197543808D828E838FF0C007C006C7
:1010F500C00512172FD005D006D00785314185329E
:10110500428533438D828E838FF0C007C006C005AC
:1011150012172FD005D006D0077541647542197591
:1011250043808D828E838FF0C007C006C0051217DD
:101135002FD005D006D00785344185354285364305
:101145008D828E838FF0C007C006C00512172FD081
:1011550005D006D0077541707542197543808D829B
:101165008E838FF0C007C006C00512172FD005D09B
:1011750006D0078537418538428539438D828E8370
:101185008FF0C007C006C00512172FD005D006D0B6
:10119500077541787542197543808D828E838FF06E
:1011A500C007C006C00512172FD005D006D0077599
:1011B50041867542197543808D828E838FF0C007F5
:1011C500C006C00512172FD005D006D0078D828E18
:0611D500838FF002188573
:10193700474554202F6170692F76312F646576698A
:1019470063655F6C6F673F6465766963655F69644C
:101957003D00266C617469747564653D00266C6F83
:101967006E6769747564653D00266C6576656C3DC8
:10197700002E303020485454502F312E310A004861
:101987006F73743A20676173747261636B61667217
:101997006963612E636F6D2E6E670A436F6E6E65A6
:0D19A7006374696F6E3A20636C6F736500A6
:1011DB00AD82AE83AFF07541B47542197543808D06
:1011EB00828E838FF002166BAD82AE83AFF07541AA
:1011FB00C97542197543808D828E838FF002166BF1
:10120B00AD82AE83AFF07541CC7542197543808DBD
:08121B00828E838FF002166B36
:1019B4004130303030303030303030303030303012
:1019C400303030390041300032303234313130334C
:0819D4005F3034353933320075
:10122300AD82AE83AFF0C007C006C005121885902B
:1012330002B8E4F09002B9F09002BAF09002BBF069
:101243009002BCF09002BDF09002BEF09002BFF09D
:101253009002C0F09002C1F09002C2F09002C3F07D
:101263009002C4F09002C5F09002C6F09002C7F05D
:101273009002C8F09002C9F09002CAF09002CBF03D
:101283009002CCF09002CDF09002CEF09002CFF01D
:101293009002D0F09002D1F09002D2F09002D3F0FD
:1012A3009002D4F09002D5F09002D6F09002D7F0DD
:1012B3009002D8F09002D9F09002DAF09002DBF0BD
:1012C3009002DCF09002DDF09002DEF09002DFF09D
:1012D3009002E0F09002E1F09002E2F09002E3F07D
:1012E3009002E4F09002E5F09002E6F09002E7F05D
:1012F3009002E8F09002E9F09002EAF09002EBF03D
:101303009002ECF09002EDF09002EEF09002EFF01C
:101313009002F0F09002F1F09002F2F09002F3F0FC
:101323009002F4F09002F5F09002F6F09002F7F0DC
:101333009002F8F09002F9F09002FAF09002FBF0BC
:101343009002FCF09002FDF09002FEF09002FFF09C
:10135300900300F0900301F0900302F0900303F078
:10136300900304F0900305F0900306F0900307F058
:10137300900308F0900309F090030AF090030BF038
:1013830090030CF090030DF090030EF090030FF018
:10139300900310F0900311F0900312F0900313F0F8
:1013A300900314F0900315F0900316F0900317F0D8
:1013B300900318F0900319F090031AF090031BF0B8
:1013C30090031CF090031DF090031EF090031FF098
:1013D300900320F0900321F0900322F0900323F078
:1013E300900324F0900325F0900326F0900327F058
:1013F300900328F0900329F090032AF090032BF038
:1014030090032CF090032DF090032EF090032FF017
:10141300900330F0900331F0900332F0900333F0F7
:10142300900334F0900335F0900336F0900337F0D7
:10143300900338F0900339F090033AF090033BF0B7
:1014430090033CF090033DF090033EF090033FF097
:10145300900340F0900341F0900342F0900343F077
:10146300900344F0900345F0900346F0900347F057
:10147300900348F0900349F090034AF090034BF037
:1014830090034CF090034DF090034EF090034FF017
:10149300900350F0900351F0900352F0900353F0F7
:1014A300900354F0900355F0900356F0900357F0D7
:1014B300900358F0900359F090035AF090035BF0B7
:1014C30090035CF090035DF090035EF090035FF097
:1014D300900360F0900361F0900362F0900363F077
:1014E300900364F0900365F0900366F0900367F057
:1014F300900368F0900369F090036AF090036BF037
:1015030090036CF090036DF090036EF090036FF016
:10151300900370F0900371F0900372F0900373F0F6
:10152300900374F0900375F0900376F0900377F0D6
:10153300900378F0900379F090037AF090037BF0B6
:1015430090037CF090037DF090037EF090037FF096
:10155300900380F0900381F0900382F0900383F076
:10156300900384F0900385F0900386F0900387F056
:10157300900388F0900389F090038AF090038BF036
:1015830090038CF090038DF090038EF090038FF016
:10159300900390F0900391F0900392F0900393F0F6
:1015A300900394F0900395F0900396F0900397F0D6
:1015B300900398F0900399F090039AF090039BF0B6
:1015C30090039CF090039DF090039EF090039FF096
:1015D3009003A0F09003A1F09003A2F09003A3F076
:1015E3009003A4F09003A5F09003A6F09003A7F056
:1015F3009003A8F09003A9F09003AAF09003ABF036
:101603009003ACF09003ADF09003AEF09003AFF015
:101613009003B0F09003B1F09003B2F09003B3F0F5
:101623009003B4F09003B5F09003B6F0853A1775C4
:1016330015C8F516F5189002B8F5F0120E28D00566
:10164300D006D0078D1A8E1B8F1C9002B875F00040
:10165300020E9B120924853F3A85403B853C8285D7
:101663003D83853EF002122385824485834585F0C0
:1016730046AA41AB42AC43A844A945AF468A828BF4
:10168300838CF012189DFEA3AA82AB838882898380
:101693008FF0EE121785A3A882A983EE70DF85442D
:1016A300828545838546F022FB7A20E4FCFDFEFF1C
:1016B300E5822582F582E58333F583E5F033F5F0A2
:1016C300EB33FB4017DAE98042E5822582F582E5B8
:1016D3008333F583E5F033F5F0EB33FBEC33FCEDCB
:1016E30033FDEE33FEEF33FFEC9541ED9542EE957E
:1016F30043EF95444013EC9541FCED9542FDEE9587
:0D17030043FEEF9544FF438201DABEEB2266
:06005000E478FFF6D8FD84
:10171000AC82AD83AE42AF43BE0004EF600C1F0F3E
:0F172000E541121785A3DEFADFF88C828D832254
:10002E007900E94400601B7A009019DC78B775A05E
:10003E0003E493F2A308B8000205A0D9F4DAF2752E
:02004E00A0FF11
:10172F0085824485834585F046AA44AB45AC468AFD
:10173F00828B838CF012189D60070ABA00F10B8020
:10174F00EEA841A942AF438A068B05888289838F11
:10175F00F012189DFBA3A882A9838E828D838CF033
:10176F00EB121785A3AE82AD83EB70DF85448285C4
:10177F0045838546F02220F71130F6138883A8821F
:10178F0020F509F6A8837583002280FEF280F5F01C
:10179F0022E5828541F0A4C582C0F08542F0A4D035
:1017AF00F025F0C5838541F0A42583F58322E5411B
:1017BF00454260467A01E54125E0F541E542334077
:1017CF0012F542E5829541E583954240030A80E692
:1017DF00C3E54213F542E54113F541C3E582954157
:1017EF00F5F0E58395424005F58385F082C3E54228
:1017FF0013F542E54113F541DAE1227A10E4FBFCDF
:10180F00E58225E0F582E58333F583EB33FBEC339B
:10181F00FCEB9541F5F0EC95424006FCABF04382B2
:04182F0001DADD22DB
:100056007800E84400600A790175A000E4F309D845
:10006600FC78B6E84403600C7904900001E4F0A340
:04007600D8FCD9FADF
:10183300FBC2D530E715D2D5E4C39582F582E49592
:1018430083F583E495F0F5F0E49BFBE54430E7177B
:10185300B2D5E4C39541F541E49542F542E495439D
:10186300F543E49544F544EB1216AB30D513FBE492
:10187300C39582F582E49583F583E495F0F5F0E46E
:101883009B22AA82AB8312189D6003A380F8C3E551
:0A189300829AF582E5839BF583221B
:0D002100758146121927E582600302001E5A
:10189D0020F71430F6148883A88220F507E6A88374
:1018AD0075830022E280F7E49322E022C2D5E5831E
:1018BD0030E70DD2D5E4C39582F582E49583F583A7
:1018CD00E54230E70BE4C39541F541E49542F5421D
:1018DD001217BD30D50BE4C39582F582E49583F5DF
:1018ED008322C2D5E58330E70DD2D5E4C39582F5C9
:1018FD0082E49583F583E54230E70DB2D5E4C395D7
:10190D0041F541E49542F54212180A30D50BE4C376
:0E191D009582F582E49583F58322758200227F
:00000001FF
